:03000000020EE904
:0C0EE900787FE4F6D8FD758121020F30FF
:100F7500840200000000810A0181110281120381AF
:100F85001304810D00810E00810F00811000820B7A
:0A0F95000000821400018200000237
:10152F001214D912156F1214EF1213CF121467027F
:02153F00159104
:1010BF0012152FD2A3D2A7D2A8D2AAD288D28AD25F
:1010CF00B8C2BAD2AFC2A3C2A7C2A2C2A1C2A6D28D
:1010DF00A5D2A0D2A47802E2FC08E2FD08E2FE0845
:1010EF00E2FFEC4D4E4F7013780CE2700218E27075
:1010FF00051211AE8012121223800D780EE27005C8
:0D110F0012105C800312111C1211EE80C83A
:040F9F00C109C10AB9
:0C156F00759850759CFD438E15D2AC227F
:0F1552007EFF300906AD061EED70F78F99D209A6
:011561002267
:10128B00786CEBF208EAF208E9F2786CE2FB08E220
:10129B00FA08E2F9120525FF121552786CE2FB08E9
:1012AB0008E2F92401F218E2FA3400F21205257073
:0212BB00D92236
:0300230002144480
:10144400C0E0C0D075D000C000309809C298D20A5C
:101454007816E599F2309904C299C209D000D0D027
:03146400D0E032A3
:100FA30081220081230081280B81290B84180000F2
:080FB30000008424000000008E
:1014D90053890F438910438E40758DF7758B5DD203
:0614E9008ED2ABD2BB2243
:10116700E4FCFD7818E2FB08E2F908E2FA08E2CBB2
:10117700F8EB2FFFEA3EFEED39FDEC38FC786B12F9
:10118700070E786BE2FC08E2FD08E2FE08E2FF7852
:1011970018E2FB08E2F908E2FA08E2CBF8D31206F4
:0611A700FD50030080DC96
:0111AD00221F
:1012BD0020A30730A729782B801C20A70B782DE2BF
:1012CD002401F218E23400F230A7147829E2FF1855
:1012DD00E2B5070B782FE22401F218E23400F22276
:03001B00020BE0F5
:100BE000C0E0C0F0C083C082C0D075D000C000C0DB
:0D0BF00001C002C003C004C005C006C0075C
:100BFD007824E2FC08E2FD08E2FE08E22401FFE4AD
:100C0D003EFEE43DFDE43CFC782412070E7817E22D
:100C1D002401FFE433FE7C007D0512057DAF0578D0
:100C2D0017EFF2758DF7758B5D701C08E2FC08E20D
:100C3D00FD08E2FE08E22401FFE43EFEE43DFDE492
:100C4D003CFC781812070E7822E22401FFE433FEF3
:100C5D007828E2FD7C0012057DAF057822EFF2FBCE
:100C6D0008E22401FFE433FE7829E2FD7C00120541
:100C7D007D7823EDF2EB7002B2A07823E27005B21D
:100C8D00A41212BDE47F887E13FDFC7824E2FB08DC
:100C9D00E2F908E2FA08E2CBF8C31206FD70147807
:100CAD001DE22401F218E23400F2782412071A0032
:030CBD0000000034
:100CC000D007D006D005D004D003D002D001D00088
:0B0CD000D0D0D082D083D0F0D0E03232
:1011EE00781DE26463700218E27005781CF208F252
:1011FE00781CE2FA08E2FB7C007D0AFFAE021205C3
:10120E007D7869EDF27C007D0AAF03AE0212057D9A
:04121E00786AEFF209
:0112220022A9
:050006007828EFF22252
:05001E007829EFF22239
:10125800E47F0BFEFDFC781EE2FB08E2F908E2FAE7
:1012680008E2CBF81205D2E47B64FAF9F812065DBD
:10127800780612070E7806E2FC08E2FD08E2FE088E
:03128800E2FF2260
:0B157B00781CE2FE08E2FFE4FCFD2209
:1013CF005389F0438902538E7F758CB8758AB8D2D2
:1013DF008CE4F5D875D90443DA42F5F9F5E975EAE5
:0713EF00ED75FAEDD2DE22DC
:100FBB00823900008A3B3031323334353637383999
:0315C200DFFE2227
:071489007F381215057F05F5
:10149000AE07AF061EEF600C7FF51215C27FF51286
:0514A00015C280EE22E0
:10154100C2B5D2B6C2B77F021215C2D2B7E5803397
:011551002277
:10150500AE0712154140FBC2B5C2B6AF068F80D2F9
:05151500B700C2B7227F
:10151A00AE0712154140FBD2B5C2B6AF068F80D2D4
:05152A00B700C2B7226A
:0A1591007F011215057F050214907A
:0715A300EF4480FF02150573
:101467001214891214891214897F381215057F08FE
:101477001215057F011215057F0612148B7F0C02CA
:02148700150549
:03000300020FF5F4
:100FF500C0E0C0F0C083C082C0D075D000C000C0C2
:1010050001C002C003C004C005C006C007C2A87F56
:101015000512149020B22312157BE47B05FAF9F82A
:10102500D31206FD400D783AE22401F218E23400AD
:10103500F28007780BE4F20804F2D2A8D007D006B4
:10104500D005D004D003D002D001D000D0D0D082BA
:07105500D083D0F0D0E0329F
:100CDB00EE6003020DBCEF24FE604A147003020D9C
:100CEB006D24026003020DBC121258E47B0AFAF960
:100CFB00F812065D7830EBF2121258E47B0AFAF91F
:100D0B00F812065DE47B0AFAF9F812065D7831EB0E
:100D1B00F2121258E47B64FAF9F812065D7832EF9E
:100D2B00F27F408078121258E47B0AFAF9F8120627
:100D3B005D7833EBF2121258E47B0AFAF9F81206DB
:100D4B005DE47B0AFAF9F812065D7834EBF21212C5
:100D5B0058E47B64FAF9F812065D7835EFF27F45BB
:100D6B00803B121258E47B0AFAF9F812065D7836CA
:100D7B00EBF2121258E47B0AFAF9F812065DE47BE7
:100D8B000AFAF9F812065D7837EBF2121258E47B87
:100D9B0064FAF9F812065D7838EFF27F49121505FF
:100DAB00E2FF12151A18E2FF12151A18E2FF1215BC
:020DBB001A22FA
:10122300C2A3C2A7E47869F208F27FE87E03121131
:1012330067786AE22401F218E23400F2C308E29408
:101243000518E2940040E3D2A3D2A7780212071A4A
:041253000000000196
:011257002274
:1011AE00E590540714602824FE601B14600F24FE83
:1011BE00600B146004240570227F0B80027F1112D5
:1011CE0000067F0B80107F0B1200067F1180077FB9
:1011DE000B1200067F1112001E8000D2A7D2A3228E
:08000E00EBF208EAF208E9F246
:05001600C2A1D2A522E9
:08156200EBF208EAF208E9F2DD
:05156A00D2A1C2A52280
:1012ED007845EBF208EAF208E9F2D3782FE29F187D
:1012FD00E29E5005D2A3D2A7221215867845E2FBB5
:10130D0008E2FA08E2F9E412056B782EF208F222EF
:10137900784812000ED3782DE29F18E29E5005D2CC
:10138900A3C2A7221215867848E2FB08E2FA08E20E
:0B139900F9E412056B782CF208F22238
:1013A400784B12000ED3782BE29F18E29E5005C2B0
:1013B400A3D2A722121586784BE2FB08E2FA08E2D0
:0B13C400F9E412056B782AF208F2220F
:0B158600C2A3C2A77FC87E000211674D
:0615B1001200160212ED0B
:0615B70012156A0212ED9C
:10131D00784E121562D3782BE29F18E29E5005C2CB
:10132D00A3D2A722121586784EE2FB08E2FA08E254
:0E133D00F9E412056B782AF208F2120016226B
:10134B007851121562D3782DE29F18E29E5005D288
:10135B00A3C2A7221215867851E2FB08E2FA08E233
:0E136B00F9E412056B782CF208F2120016223B
:1013F6004345534849203A202564004A754C6920E4
:101406006973203A202564004A754C693232206996
:0714160073203A2025640059
:100FCB00825C0000816000C18B825E000082630046
:100FDB00018265000282670003825400048256007E
:090FEB000582580006825A000735
:1014EF00438901E4F58CF58AC28CD2A97CDCEC78B7
:0514FF0061F2E408F2B7
:0115040022C4
:03000B000215BD1E
:0515BD00C28CD20B32CC
:1014A500D2930000000000000000000000000000D2
:0A14B50000000000000000C29322B6
:1014BF00D2960000000000000000000000000000B5
:0A14CF0000000000000000C2962299
:08159B00785CE2FE08E2FF2289
:0715AA007860E2FF7E0022E1
:100DBD00200B03020E507FB47E541214A520940F05
:100DCD00EF1FAC0670011ED39400EC940050EED3CF
:100DDD00EF9400EE94004063D28C2094FDC28CAF52
:100DED008CEFFEAD8A7C00E42DFFEC3ECF2401CFCD
:100DFD003400FEE4F58CF58AD3EF946DEE9400503B
:100E0D000F78607401F2C20B08E2F58C08E28025C0
:100E1D00AD07AC06E41201317B897A1D7997783CD8
:100E2D0012002612016A785CEEF208EFF2E47860A7
:100E3D00F2C20BF58CF58AD28C800578607402F2C3
:050E4D007F00227F017F
:010E5200227D
:100E5300200B03020EE67FB47E541214BF20950FBD
:100E6300EF1FAC0670011ED39400EC940050EED338
:100E7300EF9400EE94004063D28C2095FDC28CAFBA
:100E83008CEFFEAD8A7C00E42DFFEC3ECF2401CF36
:100E93003400FEE4F58CF58AD3EF946DEE940050A4
:100EA3000F78607401F2C20B08E2F58C08E280252A
:100EB300AD07AC06E41201317B897A1D7997783C42
:100EC30012002612016A785CEEF208EFF2E4786011
:100ED300F2C20BF58CF58AD28C800578607402F22D
:050EE3007F00227F01E9
:010EE80022E7
:10105C00120DBDEF705C1215AAEF4E705512159B58
:10106C00785FE26F700318E26E604712159B785E32
:10107C00EEF208EFF2786F74FFF2087414F2087451
:10108C0001F208EEF208EFF27B017A027903120703
:10109C00CE7B017A02790312128BC3785FE2940A39
:0610AC0018E29400500C54
:0C10B200E47869F208F208F2780E04F20B
:0110BE00220F
:10111C00120E53EF70441215AAEF4E703D12159B30
:10112C00785FE26F700318E26E602F12159B785E89
:10113C00EEF208EFF2786F74FFF2087414F2087490
:10114C000EF208EEF208EFF27B017A027903120735
:0B115C00CE7B017A02790312128B2275
:10002600EC4D6011E8497017ED33EC3304600DE4D4
:10003600FCFFFEFD22E933E8330470F80201D61214
:1000460001A158046009E4CC248150062850090215
:1000560001E02840030201DDC0E0EB4A7044B980AC
:1000660006D0E0FB0201CCEF4E701CBD8008EBFF12
:10007600EAFEE9FD80EBE98DF0A4FEE5F002010F52
:10008600E9CDF9EAFEEBFFEF89F0A4FCE5F0CE89B5
:10009600F0A42EFFE435F0CD89F0A42DFEE435F072
:1000A6008067EF4E7005BD80D780C3EF8BF0A4ACA0
:1000B600F0EE8BF0A42CFCE435F0F8EF8AF0A42CDB
:1000C600E5F038FCE433CB8DF0A42CFCE5F03BF8EE
:1000D600EE8AF0A42CFCE5F038F8E433CF89F0A4DE
:1000E6002CFCE5F038CF3400CE89F0A42FFFE5F0E4
:1000F6003EFEE433C98DF0A42EFEE5F039CD8AF03C
:10010600A42FFFE5F03EFEE43DFD33D0E0FB5007B3
:100116000BBB000F0201E0EC2CFCEF33FFEE33FECD
:06012600ED33FD0201B8FB
:10012C0075F020800E75F010800575F0087D007E4E
:10013C00007F003392D530D5031206EFEC3340101C
:10014C00EF33FFEE33FEED33FDEC33FCD5F0ED2257
:0E015C00E5F0247EA2D513CC92E7CDCEFF2293
:10016A00EDD2E7CD33EC3392D524814006E4FFFE8D
:10017A00FDFC22FCE4CFCECDCC24E0501174FF80EC
:10018A00EDC3CC13CCCD13CDCE13CECF13CF047089
:07019A00F030D5DE0206EF94
:10077200E508246FF8E2050822786C300702786FEA
:10078200E475F0011207330205252000EB7F2ED21B
:10079200008018EF540F2490D43440D4FF30040B5F
:1007A200EF24BFB41A0050032461FFE5096002156B
:1007B20009050CE50C7002050B30070D786CE47529
:1007C200F001120733EF02056B02141D7403D20706
:1007D2008003E4C207F508786C120743E4F509F5D3
:1007E2000BF50CE50960077F201207AD80F5750A4D
:1007F200FFC201C200C202C203C205C206C208127F
:10080200077BFF700D3007057F001207BEAF0CAEED
:100812000B22B4255FC2D5C20412077BFF24D0B4D9
:100822000A00501A75F00A780930D50508B6FF019A
:1008320006C6A426F620D5047002D20380D924CF9E
:10084200B41A00EF5004C2E5D204020AAAD201800F
:10085200C6D20080C0D20280BCD2D580BAD2058076
:10086200B47F201207AD2002077401B5090040F1E0
:10087200120772FF1207AD0207E5D208D206809571
:10088200120772FB120772FA120772F94A4B7006CC
:1008920079A17A0B7BFF20022EE509602A7E008E69
:1008A2008275830012053E60060EEE650A70F0C284
:1008B200D5EBC0E0EAC0E0E9C0E0EE120B0AD0E0FE
:1008C200F9D0E0FAD0E0FB120525FF60AAEBC0E008
:1008D200EAC0E0E9C0E01207ADD0E02401F9D0E0BF
:1008E2003400FAD0E0FBE50A0460DCD50AD980873F
:1008F200D20280A2120AED60F7E50A700104120129
:10090200EBA90A600DE50A600914F50A120B94EFCF
:1009120060F3EA30E702F404C3995077EAF4250A57
:100922000430E701E404F50A800D120AED60C1EA21
:10093200050A250A1201EBEA7882F230E701E42582
:100942000A04D50A0420050114120B0AE4C0E012BD
:100952000B947882E2601320E70714F21207958065
:100962002204F2D0E014C0E07F00120795E50A608D
:100972000712078C150A800B30050312078CD0E092
:100982000207E5D0E00480C5120AED60A0E50A0482
:100992001201EB7882EAF2E50A20050260010424E2
:0C09A20004120B0A74FF04C0E0120B9456
:1009AE00120795E50A200502600312078CD0E0B508
:1009BE000AE87F4512079F7882E27F2B30E7047F9B
:1009CE002DF404C0E01207ADD0E075F00A84C0F03B
:1009DE00120796D0E01207960207E5791080027989
:1009EE0008C206C2088008D2D5790A8004790AC2E4
:1009FE00D5E50A047002F50AE4FAFDFEFF1207724D
:100A0E00FC7B08200113120772FD7B1030000A12C6
:100A1E000772FE120772FF7B20EC3382D592D550FF
:100A2E0013C3E43000069FFFE49EFEE42001039D05
:100A3E00FDE49CFCE4CBF8C201EC700CCFCECDCC27
:100A4E00E824F8F870F38017C3EF33FFEE33FEEDB2
:100A5E0033FDEC33FCEB33FB994002FB0FD8E9EB93
:100A6E00300105F8D0E0C448B201C0E00AEC4D4EAA
:100A7E004F78207B0070C2EAB50A0040BCC0E0127D
:100A8E000B0CD0F0D0E0200104C4C0E0C4B201C011
:100A9E00F0120796D0F0D5F0EB0207E512074C08DE
:100AAE00825309E95808534C084F4209ED4F09F596
:100ABE004409F54908684309FB55092C46098A453E
:100ACE0008F6470BC15008572D085B2E087E2B08E1
:100ADE005F23087C200BAA2A08174800000876E539
:100AEE000AB4FF03750A06120772FC120772FD1292
:100AFE000772FE120772FF787B02021A790AA2D5DC
:100B0E00200314300509B910020404B9080104A227
:100B1E00D52006025001042002689202B509005049
:100B2E0034C0E07F203003197F30A20272067205B6
:100B3E00500F120B63C202C206C205C2087F30807C
:100B4E000F300503E9C0E01207AD300503D0E0F920
:100B5E00D0E0B509CC3005177F30B9100C1207ADB7
:100B6E007F583004077F788003B908031207AD3031
:100B7E0002057F2D0207AD7F202008F87F2B20066F
:100B8E00F322920280CF7F00B407005005247BF839
:100B9E00E2FF22286E756C6C2900D20112077230AA
:100BAE0001F8C201780930D50108F60208172D5058
:100BBE004349581207722403B405004001E4900B18
:100BCE00BC9312079E743A12079ED2037509040253
:020BDE0009E923
:1001A100E9D2E7C933E833F892D5EDD2E7CD33ECA4
:0701B10033FC5002B2D5221D
:1001B800EC30E7100FBF000C0EBE00080DBD0004A8
:1001C8000BEB6014A2D5EB13FCED92E7FD2274FF54
:1001D800FCFDFEFF22E480F8A2D574FF13FC7D80AD
:0301E800E480EFC1
:1001EB00F920E72824F950037907E4F42402FB18DB
:1001FB00DBFDE224FB5014E9600DE4F218E204F29B
:0F020B00B40A08E4F2D9F57401F20A22C2D5222E
:10021A00ED33EC3392D5FA602AB4FF33EDC2E77BB3
:10022A00FF60067A02793FE4227A02794820D504EF
:10023A007A027943224E614E002B494E46002D49DF
:10024A004E4600E47A08F208DAFC7B00740722E8DA
:10025A00C0E0ECC0E0EDC0E0EEC0E0EFC0E0EA755F
:10026A00F010A4CAABF075F04DA42BFBE435F0FCFA
:10027A00EA2410FAEB34C5FBEC34D9FCEDC2E7FFF3
:10028A0075F056A4F42411C5F0F434C58FF0A42AED
:10029A00E5F03BE43CF220E7141204E5D0E0FFD09D
:1002AA00E0FED0E0FDD0E0FC1204188014F4041241
:1002BA0004E5D0E0FFD0E0FED0E0FDD0E0FC120083
:1002CA0026D0E0F8E2FAEDD2E7CD33EC332482FB14
:1002DA00E4C3CF33CFCE33CECD33CD33DBF37B077D
:1002EA0075F00A846004F2081B0AE5F0F2088FF040
:1002FA00740AA4FFACF08EF0740AA42CFEACF05081
:10030A00010C8DF0740AA42CFDE435F0F208DBDE52
:03031A0074072243
:10031D000201D6E86480F8E933E83360110460F037
:10032D00ED33EC337009E8FCE9FDEAFEEBFF220446
:10033D0060DED3EB9FEA9EE99DE8C2E78CF0C2F741
:10034D0095F0400CE8CCF8E9CDF9EACEFAEBCFFB0D
:10035D001201A185D0F05804700320D5B3E80470C4
:10036D00075002B2D50201E092D5EC0460F7E4CC5F
:10037D00C0E0C398F8603B94186008400DD0E0FBD6
:10038D000201B8E4FBFAC9FC8028E830E406E4C9B0
:10039D00FBE4CAFCE830E305E4C9CACBFCE854072A
:1003AD006010F8C3E913F9EA13FAEB13FBEC13FC35
:1003BD00D8F130F52FC3E49CFCEF9BFFEE9AFEEDD8
:1003CD0099FDD0E0FBEF4E4D4C701222DB03020184
:1003DD00DDEC2CFCEF33FFEE33FEED33FDED30E7BE
:1003ED00EB0201B8EF2BFFEE3AFEED39FDD0E0FB4D
:1003FD0050130BBB00030201E0ED13FDEE13FEEFF6
:08040D0013FFEC13FC0201B81F
:100415000201E0EC5D046005E8590470030201D6B1
:100425001201A1580460F6EC4860F2EC7004FDFE80
:10043500FF22C860DB2481C85009C39860025006BA
:100445000201DD9850CAF582E9294B4A7005AB8255
:100455000201CC75F0007C1A7880C3EF9BEE9AED13
:1004650099400DC3EF9BFFEE9AFEED99FDE842F032
:10047500DC23ACF0D0E0FFD0E0FED0E0FDAB822085
:10048500E7101BEB60BAEC2CFCEF33FFEE33FEED0F
:1004950033FD0201B8E803F830E705C0F075F00058
:1004A500EF2FFFEE33FEED33FD40B830E7C280AAF3
:1004B5003F8000004120000042C80000447A00004F
:1004C500461C400047C35000497424004B189680D1
:1004D5004CBEBC205A0E1BCA6753C21C749DC5AEC8
:1004E500FB60065407601C2323120513EB54386088
:1004F500091204FF12050E120026ECF8EDF9EEFACA
:10050500EFCB22EB12050E80F1543803241C900426
:10051500B5FE93FC0EEE93FD0EEE930ECE93FF22E9
:100EF5000210BFE493A3F8E493A34003F68001F244
:100F050008DFF48029E493A3F85407240CC8C333FD
:100F1500C4540F4420C8834004F456800146F6DFCC
:100F2500E4800B0102040810204080900F75E47ED8
:100F3500019360BCA3FF543F30E509541FFEE493C1
:100F4500A360010ECF54C025E060A840B8E493A388
:100F5500FAE493A3F8E493A3C8C582C8CAC583CAB3
:100F6500F0A3C8C582C8CAC583CADFE9DEE780BE6B
:010FF40000FC
:10052500BB010689828A83E0225002E722BBFE02D4
:09053500E32289828A83E4932207
:10053E00BB010CE58229F582E5833AF583E0225072
:10054E0006E92582F8E622BBFE06E92582F8E222BC
:0D055E00E58229F582E5833AF583E49322D6
:10056B00BB010689828A83F0225002F722BBFE016F
:02057B00F32269
:10057D00BC000BBE0029EF8DF084FFADF022E4CC62
:10058D00F875F008EF2FFFEE33FEEC33FCEE9DEC2B
:10059D00984005FCEE9DFE0FD5F0E9E4CEFD22ED71
:1005AD00F8F5F0EE8420D21CFEADF075F008EF2FBB
:1005BD00FFED33FD4007985006D5F0F222C398FDAC
:0505CD000FD5F0EA2249
:1005D200E88FF0A4CC8BF0A42CFCE98EF0A42CFCC8
:1005E2008AF0EDA42CFCEA8EF0A4CDA8F08BF0A446
:1005F2002DCC3825F0FDE98FF0A42CCD35F0FCEBA5
:100602008EF0A4FEA9F0EB8FF0A4CFC5F02ECD3969
:0F061200FEE43CFCEAA42DCE35F0FDE43CFC22D6
:1006210075F008758200EF2FFFEE33FECD33CDCC90
:1006310033CCC58233C5829BED9AEC99E582984013
:100641000CF582EE9BFEED9AFDEC99FC0FD5F0D6F0
:10065100E4CEFBE4CDFAE4CCF9A88222B800C1B91A
:100661000059BA002DEC8BF084CFCECDFCE5F0CB58
:10067100F97818EF2FFFEE33FEED33FDEC33FCEB91
:1006810033FB10D703994004EB99FB0FD8E5E4F94C
:10069100FA227818EF2FFFEE33FEED33FDEC33FC39
:1006A100C933C910D7059BE99A4007EC9BFCE99A2D
:1006B100F90FD8E0E4C9FAE4CCFB2275F010EF2F72
:1006C100FFEE33FEED33FDCC33CCC833C810D70772
:1006D1009BEC9AE899400AED9BFDEC9AFCE899F8AD
:0E06E1000FD5F0DAE4CDFBE4CCFAE4C8F92240
:0E06EF00C3E49FFFE49EFEE49DFDE49CFC221C
:1006FD00EB9FF5F0EA9E42F0E99D42F0E89C45F053
:01070D0022C9
:0C070E00ECF208EDF208EEF208EFF22227
:10071A00D083D082E493F208740193F208740293AE
:09072A00F208740393F2740473E5
:10073300FAE2FB0808E2F925F0F218E2CA3AF222DB
:09074300EBF208EAF208E9F222E7
:10074C00D083D082F8E4937012740193700DA3A33C
:10075C0093F8740193F5828883E473740293686050
:06076C00EFA3A3A380DF50
:10141D00EFB40A07740D121428740A309811A899A4
:10142D00B8130CC2983098FDA899C298B811F6302F
:07143D0099FDC299F5992207
:00000001FF
